:020000040000FA
:1000000078040020350100003D0100003F010000A0
:1000100000000000000000000000000000000000E0
:100020000000000000000000000000004701000088
:1000300000000000000000004B0100007102000001
:100040004F0100004F0100004F0100004F01000070
:100050001D0200004F0100004F0100004F01000091
:10006000F11B00004F010000B5020000191C000048
:10007000311C0000DD0100004F0100004F010000B5
:100080004F0100004F0100004F0100004F01000030
:1000900000F002F800F03EF80CA030C80838241830
:1000A0002D18A246671EAB4654465D46AC4201D1B0
:1000B00000F030F87E460F3E0FCCB64601263342A4
:1000C00000D0FB1AA246AB463343184790240000E9
:1000D000B0240000103A02D378C878C1FAD8520789
:1000E00001D330C830C101D504680C6070470000EE
:1000F0000023002400250026103A01D378C1FBD844
:10010000520700D330C100D50B6070471FB51FBD2B
:1001100010B510BD00F02FF81146FFF7F7FF00F003
:100120003FFB00F047F803B4FFF7F2FF03BC00F019
:100130004DF800000948804709480047FEE7FEE700
:10014000FEE7FEE7FEE7FEE7FEE7FEE7FEE7FEE787
:1001500004480549034A054B70470000A50200000A
:10016000910000007803002078040020780300202C
:10017000704770477047754600F024F8AE4605009A
:1001800069465346C008C000854618B020B5FFF741
:10019000DFFF60BC00274908B6460026C0C5C0C5C1
:1001A000C0C5C0C5C0C5C0C5C0C5C0C5403D49006B
:1001B0008D46704710B50446C046C0462046FFF73E
:1001C000B2FF10BD004870471803002001491820F5
:1001D000ABBEFEE726000200704700000D4810B5D8
:1001E0000146FF31413180308A7D806E824205DBDD
:1001F0000020887501F052FB00F0E0F901F0A0FF4B
:1002000001F0A5FF0448016949094901091D01617F
:1002100010BD0000D00000200000154010B51148AE
:100220000F4C806AC00716D001F0FFFB8034606B72
:10023000022108430C4A0021117081229200904350
:100240004008012240009202904360630748017019
:10025000012000F043FDFF2000F040FD10BD000034
:10026000D000002040000740000000209400002043
:1002700010B50B4C01F030FB01F0E4FA00F06AFA23
:1002800080342046216A40300C2901DA002102E046
:10029000782901DD0121017700F0A4FA10BD0000EA
:1002A000D0000020024901480860704700093D0065
:1002B000900000200248016810221143016070473D
:1002C00000000E4030B47446641E2578641CAB42B6
:1002D00000D21D46635D5B00E31830BC1847000088
:1002E000002805DBC106C90E0120884001490860CD
:1002F0007047000000E100E000000000FFFFFFFF8A
:10030000002809DBC106C90E0120884003490860A6
:10031000BFF34F8FBFF36F8F7047000080E100E0A5
:10032000002809DBC106C90E012088400349086086
:10033000BFF34F8FBFF36F8F7047000080E100E085
:10034000002805DBC106C90E01208840014908606C
:100350007047000000E100E08307FF22DB0E9A40B7
:100360008907090E9940002808DB830809489B008B
:100370001B18186890430843186070470007000F67
:100380000838830804489B001B18D8699043084329
:10039000D861704700E400E000ED00E08307FF2231
:1003A000DB0E9A408907090E9940002808DB830874
:1003B00009489B001B181868904308431860704751
:1003C0000007000F0838830804489B001B18D869F1
:1003D00090430843D861704700E400E000ED00E07E
:1003E00010B503680C68191B002906DD12688A42E3
:1003F00001DB046010BD991A06E00029FADA1268E0
:1004000049428A42F5DA9918016010BDF8B50446F0
:10041000443001F0B7FB26460A204036B087254617
:1004200003206035A8762746322180370B48396093
:10043000F86020461C3001F0A5FB094820640948FB
:1004400001216067C903002003C40A20B08703208C
:10045000A8763220B9613860F8BD00009919000013
:10046000C52000003655060000B507490A68531C30
:100470000B600A2A06D900220A6002467432011D66
:10048000FFF7AEFF00BD00000400002010B50B49CF
:100490004A68531C4B60052A0FD900224A60014666
:1004A000024680318C320C468830FFF799FF0449B0
:1004B000A06801F09DFCA064E06310BD0400002072
:1004C00000A0860110B50021012000F023FD0120CD
:1004D00000F0FEFC002803D0FF21012000F008FD01
:1004E0000421032000F004FD0921022000F000FD9A
:1004F0000021172000F0FCFC0021262000F0F8FC71
:100500000021272000F0F4FC0021282000F0F0FC5E
:100510000021292000F0ECFC0021102000F0E8FC74
:100520000021152000F0E4FC012001F006FAD021A2
:100530000D2000F0DDFCD0210E2000F0D9FCD021F0
:100540000F2000F0D5FC1321212000F0D1FC8521E3
:10055000222000F0CDFC5521232000F0C9FC112100
:10056000242000F0C5FC1021252000F0C1FC124819
:1005700000F0E2F8FF21182000F0BAFC0721172054
:1005800000F0B6FC0021262000F0B2FC0D2127204F
:1005900000F0AEFC0021282000F0AAFC0021292058
:1005A00000F0A6FC0C21102000F0A2FC1F21152059
:1005B00000F09EFC10BD0000FF030000F8B5344CB5
:1005C000344826460278F368316835463046C91A01
:1005D000C0358030304F1C361300FFF773FE09160C
:1005E000062338434C52164E55002046FF3041300A
:1005F000428B012A16D0018B4A1C92B20283052934
:1006000004D30021018301214183F8BD002AFCD1DC
:1006100072B601217D2000F06BFC62B6F8BD000CC3
:10062000E8872BE0304601F0B3FAB989A06A0904E3
:100630008842F4DD304601F0A5FAB8890004E06193
:10064000B88900042062B8890004A062E7E7816BE2
:10065000C06BC903C003091A2046443001F098FA60
:10066000206D00E0806A2060E168411A304601F0A8
:100670008FFAA06AD3E701F08DFBE88F01F03FF914
:10068000F8BD01F0B0FEF8BD024900200870F8BDC9
:10069000D0000020010000209400002038B5184C44
:1006A0006168042001436160626808210A43626056
:1006B000E2680243E260E0680843E060002211461D
:1006C000012000F0F7FC00200123024600900D49B4
:1006D000184600F02BFC012300221146184600F0BA
:1006E0007BFC012300221946184600F075FCE069E6
:1006F00030210843E061E069C0210843E06138BD72
:10070000400008405704000070B5094D094C681EB0
:10071000606103210E1F3046FFF740FE0020A061FC
:100720000720206103213046FFF738FEA56170BD28
:1007300020A1070000E000E010B504468005010E8E
:10074000132000F0D5FBA107890F142000F0D0FB87
:1007500010BD000070B5104D0E4C2878052818D13A
:100760002046C030818D0646491C89B281850A2900
:100770000FD38034606B40084000606301F055F98E
:100780000020064928700870B085606B0821084376
:10079000606370BDD00000209400002000000020A5
:1007A0000D4C72B600F01AFDFFF78CFEFFF7ACFFA0
:1007B000FFF774FF2046FFF729FE084881680122F1
:1007C00092031143816000F08DFF054900200870FD
:1007D000487062B6FEE70000D0000020000015401F
:1007E00000000020FEB5684D68482E46C0360290D5
:1007F000317F674F674C002905D12078002802D04F
:10080000082020703870604822780346A03380307A
:10081000019300901300FFF755FD090616295E614C
:1008200061151588B40000F0BBF8307F002809D0AE
:100830000098808E800705D4029900200870062059
:1008400020703870FEBDFF205B30405B0128F9D17D
:1008500051480078052805D02846FFF705FE00F02E
:1008600093FEFEBD02206EE02070FEBDEE1DF93647
:10087000308C0C282BD372B601217D2000F038FB80
:1008800062B60020308401988079002804D00128C5
:1008900010D0022810D012E0009E40493068B060AD
:1008A00001F0A6FAB064F06328686864A86428655B
:1008B000032002E0042000E0052038702070009939
:1008C0000122486B52029043042210434863284699
:1008D000FFF7CAFDFEBD2846FFF7D8FD01988079D5
:1008E000002808D0012813D00228F3D12078052849
:1008F000F0D0052027E020780328EBD0F08F00040B
:10090000E861F08F00042862F08F0004A86217E00D
:1009100020780428DED0F08F0004E861F08F000416
:100920002862F08F0004A8620CE000290DD0019825
:100930008079002804D0012804D00228D9D0FEBD37
:10094000032000E0042038708EE7134D1349286A15
:1009500001F04EFA80B2A884009DA96B814205D2B5
:10096000E86A411CE962296B884204D301F05DF812
:100970000020E86278E7F08F0528E0D9401FF08773
:10098000FEBD002070E70000D00000202C020020F7
:1009900001000020000000209400002000A086013B
:1009A000F8B5314E314C01F040F8E51DF93500271E
:1009B00028462F84403007832D494181C03800905C
:1009C00081630098C16305204004A0622760206213
:1009D00020461C3001F0D6F8C034E7872F806F80A6
:1009E000AF8034464034234DE77428698005800D7C
:1009F0003061A8698005800D7061286A8005800DCE
:100A0000B0617269316989180818F06100041A49E7
:100A100001F06CF80014F061A86A18498005800D97
:100A20006080000401F062F8A96A000C8905890D54
:100A3000401860800B20FFF773FC0C20FFF770FC60
:100A400000988121406B89008843410849000120BA
:100A5000800281430098416309480A4907700320D6
:100A6000087009480770F8BD2C020020D000002053
:100A7000FFFF00004000154055550000AAAA0000E5
:100A800094000020020000200100002030B5104B2F
:100A90001C688025AC431C601C6807252D0240079C
:100AA000AC43400D04431C6018684024C907A043B0
:100AB000490E084318601868110700090001090F62
:100AC00008431860186861010843186030BD0000D1
:100AD0004000154070B5049D00280ED001280ED0AE
:100AE00002280FD0032810D0042811D0052812D0D6
:100AF000062813D0072814D015E01A4C13E0194C1F
:100B0000083410E0174C10340DE0164C18340AE08D
:100B1000144C203407E0134C283404E0114C3034DA
:100B200001E0104C38342068072636034907B043EB
:100B3000490C08432060206803210902884391077B
:100B4000890D084320602068000A000218432060D5
:100B50002068032189028843A907090D0843206002
:100B600070BD00004400154030B50C4B9C68072553
:100B7000AD024007AC43C00C04439C609868490731
:100B8000C008C000490F08439860986801214903D4
:100B90008843D107890C0843986030BD0000154098
:100BA0000848C16903229202914302158918C16164
:100BB000C169032212039143012212038918C16102
:100BC000704700004000074008494A68C043C3B26C
:100BD00048681A40000A00021043486088698A6920
:100BE0001840120A120202438A617047000008404E
:100BF00010B5084A13682024C007A343800E03439E
:100C0000136010684907C008C000490F084310600E
:100C100010BD00000000154004498A680123DB0371
:100C2000C0079A43000C02438A60704700001540D9
:100C3000F0B5264F1D46254E40370300FFF742FB17
:100C400007050A0F13181C412100204C7162203443
:100C5000B26216E01D4C71633034B26311E03C4661
:100C60007960BA600DE0194C79615034BA6108E0DE
:100C70001748174C203802E01648164C20384162BD
:100C80008262206820218843E907890E084320609A
:100C90002068102188430599C907C90E08432060C0
:100CA0002068402188430799C907490E08432060FE
:100CB0002068802188430699C907090E08432060EF
:100CC000F0BD0548044C2038D9E7000080000D40F5
:100CD000A0000E40A0000F40A000104003498A6A07
:100CE000120A120202438A62704700004000074065
:100CF0000349CA6A120A12020243CA62704700001C
:100D0000400007400649054A0A608A6A800792083F
:100D10009200800F02438A627047000078563412B6
:100D20000000024010B5144A1368C0242343136026
:100D300013680224C907A343890F0B43136051684A
:100D400003239B0219435160516823029943516068
:100D5000516889088900491C51609168090C09048F
:100D6000491C9160002111621168C00749084900BF
:100D7000C00F0143116010BD0000204030B50C4B86
:100D80009C690F252D020007AC43000D04439C61B4
:100D900098692C010907A043090C084398619869D8
:100DA000210188431107090B0843986130BD0000F9
:100DB000000020401148C1690C229143091DC16106
:100DC0004168022211434160C1690322120291432A
:100DD000FF310131C1614168102211434160C16995
:100DE000302291431031C1614168042211434160B6
:100DF000C169C02291434031C16170474000074042
:100E000010B501239B071C688007A408A400800F6D
:100E100004431C6018681C244907A043C90E0843FA
:100E200018601868602188439107490E08431860CC
:100E300010BD000010B50124A407216889088900AD
:100E4000491C2160A16849084900A160801EC105B4
:100E5000C90D0122002000F00BF8044800F024F82E
:100E6000206880210843206010BD00009A02000025
:100E700030B501239B075C687C25C006AC43400E5F
:100E800004435C605868074CC9052040090C0843BE
:100E9000586058680F21090488431107090B08435B
:100EA000586030BD7F00FFFF08494861002088611D
:100EB00001208007436801221343436008691043FF
:100EC00008610869C003FCD57047000000E000E03D
:100ED00041020648C16141698906FCD54169202269
:100EE00011434161C069C0B270470000000020405A
:100EF0004202FF200A43013002430548C2614169B2
:100F00008906FCD5416920221143416170470000E8
:100F10000000204010B5FFF705FF0121052208461B
:100F2000FFF72CFFFFF746FF10BD0000F0B5059C52
:100F30000125E4079B072D03E40C1B0D0826002860
:100F400007D001280BD0022818D0032806D10C485E
:100F500006E00C4804E0016831430160F0BD0A4836
:100F60000768AF4327430760416001680324A40278
:100F7000A14319430160002AEDD1F0BD0348EFE71A
:100F80000000104000000D4000000E4000000F4027
:100F9000C90710B510222023890E00280ED0012881
:100FA0000ED002280ED0032807D107480468144346
:100FB000046002689A430A43026010BD0348F5E7E3
:100FC0000348F3E70348F1E70000104000000D403C
:100FD00000000E4000000F4030B51D46002806D02E
:100FE000012826D002283CD003284ED141E02D48CC
:100FF0000B00FFF767F9082805080B0E12161A4AAE
:10100000284C083440E0274C103424E0254C183498
:1010100025E0244C4262203437E0224CC26228345E
:1010200033E0204C426330342FE01E4CC26338342E
:101030002BE01D48002906D0012907D0022908D03D
:10104000032922D109E0044642601EE0164C083410
:101050001AE0154C1034426117E0134C1834C26189
:1010600013E0124800290AD001290ED10F4C083490
:101070000AE00F48002902D0012906D102E0044607
:10108000426002E00A4C0834C26020680421084330
:101090002060206808218843E907090F0843206081
:1010A00030BD000040000D4040000E4040000F40A9
:1010B0004000104030B50123C907FF2452075B02EE
:1010C000890DC134D20D00280FD001280FD002287D
:1010D0000FD0032808D1084805689D430D430560DB
:1010E0000168A1431143016030BD0448F4E704489E
:1010F000F2E70448F0E700000000104000000D4057
:1011000000000E4000000F40F0B51B4C069E059DF0
:10111000E7688007BF08BF00800F0743E760E0680B
:101120000427C907B843490F0843E060E068082175
:101130008843D107090F0843E060E0681021884325
:10114000D907C90E0843E060E06820218843E90719
:10115000890E0843E060E06840218843F107490EAA
:101160000843E060E068802188430799C907090EB9
:101170000843E060F0BD000000001D4006494A68D9
:10118000120A1202030A1A434A600A68C0B2120A1B
:10119000120202430A60704700001D4003498A6B37
:1011A000120A120202438A637047000000001D40C9
:1011B0000948C1690C2291430831C161416802228A
:1011C00011434160C169302291432031C1614168BE
:1011D0000422914341607047000009403EB5002160
:1011E0000120FFF797FE00217D20FFF781FEA74C2D
:1011F00002E0204600F0B0F97D20FFF769FEC0074D
:10120000F7D13220FFF716FE002211460120FFF72A
:10121000F7FD0120FFF776FD002201211046FFF7C0
:1012200049FF002402232246994920460094FFF7F3
:101230007DFE974A0123143A19460020FFF7CCFEA1
:1012400001210820FFF788F80820FFF749F800235C
:10125000322200940194114618460294FFF7E8FCEC
:101260003222009401940023114601200294FFF7DA
:10127000DFFC3222009401940023114602200294E4
:10128000FFF7D6FCFF25002387352A4604211846A0
:10129000FFF7A2FE00232A4605211846FFF79CFE11
:1012A00000232A4606211846FFF796FE7948C169B1
:1012B00089088900491CC161C1690C229143091D3B
:1012C000C161C169302291431031C16142683F213F
:1012D000120A12020A434260002211460220FFF75E
:1012E000E9FEFF2101230022F53102200094FFF7DF
:1012F0001DFE01210220FFF74BFE00210B20FFF70E
:101300002BF80B20FEF7FCFF072200210320FFF73C
:10131000D1FE01230022604903200094FFF706FE5E
:101320007D220123120100210320FFF755FE002139
:101330000C20FFF711F80C20FEF7E2FF0120FFF769
:10134000D7FC544D4035286A000A00022862696AB9
:101350000120090A09020143696203210420FEF702
:10136000FBFF0420FEF7BCFFA96A0120090A09025D
:101370000143A9620020FFF7BBFCFFF719FF4748B4
:101380000621C268120A12020A43C2600023012524
:1013900000941A461946032002950194FFF7B4FE03
:1013A0001B20FFF7EBFE2020FFF7F8FE3C48C1684A
:1013B00080229143C1608168A943294381604168CB
:1013C000A9432943416003211020FEF7C5FF1020E7
:1013D000FEF786FF0020FFF71FFC01210846FFF7FC
:1013E00007FCFFF7DDFB012203210720FFF7BCFB11
:1013F0000120FFF7E9FB2B49052048600022114638
:101400000620FFF743FB002109230222084600942F
:10141000FFF760FB0A230222002101200094FFF75E
:1014200059FB02220B23002110460094FFF752FBC8
:1014300003230222002118460094FFF74BFB0123EF
:101440000222032104200094FFF744FB02231A46E2
:10145000002105200094FFF73DFB002302221946DE
:1014600006200094FFF736FB0F490869AA02904353
:10147000104308610D20FEF733FF02210D20FEF717
:101480006BFF0120FFF7C8FB3EBD0000BCBE0000A3
:101490000D03000000000740FFFF000000000940AE
:1014A00000001D4040000D400000154070B5234C69
:1014B000E520E51D015DF935687D002901D0204951
:1014C00000E02049085CA875687D1F49095C0F2071
:1014D000FFF70EFD264680363046318FC030018042
:1014E000318F418000206882B06B40000104286386
:1014F000164800F0FBFAB16900F0F8FA000C40342D
:10150000A087134801680122120391430160114929
:1015100041600268032189028A4302600368042251
:101520001343036003688B4311025918016001687B
:10153000914301600B20FEF703FF70BDD000002037
:10154000522500003D25000036250000894100009D
:1015500000001040FFFF0000044672B600F065FA7C
:1015600008486208002100E0491C8A42FCDC01684E
:101570000123C9B2594003681B0A1B020B430360D5
:10158000F0E7000000000940F8B55148514C05460D
:101590002278E91D23461F8AF93100268035130081
:1015A000FEF790FE0604282D518A27936A6B9C2330
:1015B0009A436A6303222282E68066810122120432
:1015C000E661A2622E750E754E734E620E820A8A15
:1015D00052001218FF32013296860A8A521C92B2C9
:1015E0000A82062AF3D30E82443000F0CBFA01209F
:1015F0002070F8BD384600F08CF90220F8E7E18849
:101600004A1CE28062889142F3D9A169E030E1612D
:101610004079002801D0012000E00520208280B21E
:1016200000F077F92C49E06900F0E2FB80B22B4929
:101630002081486001210320FFF7AAFC0C20FEF75F
:101640007FFE0320D4E7226A6169E0695318834270
:1016500001DD401803E0531A834202DA401AE061C8
:1016600001E01046E2611C4900F0C2FB80B21B4F52
:10167000208178601849206A00F0BAFBE8631649B7
:10168000E06900F0B5FBA86312482030007B002819
:1016900010D0216AE06988420CDB297D481C28753E
:1016A0000029A6D02E752089410880080818786086
:1016B00004209DE72E75F8BD4F75FFF7F7FE052056
:1016C0002070074904200870F8BD2670F8BD00009E
:1016D000D00000209400002000A0860100001040EF
:1016E00002000020F8B54A4C0720E61D8004F936B8
:1016F000B061F0610120254600058035286401278E
:10170000AF66686443490020F180022302460090DE
:10171000FFF70CFCF08801233C3882B21946002008
:10172000FFF75AFCF0880104380400F0F5F9B060C6
:101730003948E86139482866052040046F65286506
:101740003748A061FF201F30E864FEF7F5FFF8037B
:10175000606505225204626605239B04E362314AF8
:101760004B23A2665B0423634000410000275834EA
:1017700083C4643C7D23DB04A763E3636063F38875
:10178000294E1B04E3632264274B01221A7323466C
:10179000E0335F711A71254BAB617A231A550A2227
:1017A000203E7280B06140107061500430627D2034
:1017B000C004616060671E482867AF20800428600D
:1017C000192080046960E8601A486867F8200253AD
:1017D0001A4819498180FF21A631C1800281032165
:1017E0004030418032210181582181801448A86411
:1017F000686D00F0A2F8FF203930B081F081708868
:10180000B0809C202F63A0346867A771F8BD0000EA
:10181000D00000201A060000894100008F3E000021
:101820002F48000062100000B4000020CC4C0000E3
:101830003333000099190000A9030000940200202E
:10184000B70C0000F8B5134C00252646206A403638
:10185000114F962807DB00F0E8F835773D70606B94
:10186000202108436063206A0C2807DC00F0DDF8C3
:1018700035773D70606B4021084308E0317F0029D7
:1018800006D00D38892803D2606B602188436063DD
:10189000F8BD0000500100200000002010B5794C78
:1018A000204600F0B6FA7020005B000400F094FAC5
:1018B000E021095900F01AF9E060FF2009300159D0
:1018C0007148406A000400F011F90146E066E068E2
:1018D00000F00CF9E06010BD10B53921694C090425
:1018E000A32000F003F98034014620626748806A33
:1018F0008005800900F0FAF80014206210BD6249EA
:101900004862C862486370475F4B5862D9625A6345
:101910007047062810DC5E490A5C5E490B681B0AAA
:101920001B0213430B60CA69594B120C120440008E
:101930000833185A0243CA61704770B5514C80345D
:10194000082834D006DC01280BD0022809D004284E
:1019500008D12AE010282CD020282CD0302801D102
:101960002BE0A065A06D4325C0002843C1B206202E
:10197000FFF7BEFA10210720FFF7BAFAA06DC000EA
:101980002843C1B20820FFF7B3FA10210920FFF75E
:10199000AFFAA06DC0002843C1B20A20FFF7A8FA31
:1019A00010210B20FFF7A4FA70BD0320D9E7042013
:1019B000D7E70520D5E70620D3E70720D1E770B5A4
:1019C000304C72B6002530484562C5624563202020
:1019D000FFF77EFA502602E02020FFF779FA304226
:1019E000FAD11820FFF774FA0007FAD4FF21182063
:1019F000FFF77EFA00217D20FFF77AFA7D20FFF7BE
:101A000067FAC007F6D101217D20FFF771FA7D202A
:101A1000FFF75EFAC007F6D08034606B022188437E
:101A200060631D48057062B670BD10B5154C00218D
:101A30007D20FFF75DFA144900204862C8624863C0
:101A40001448016802680906890F8901120A120206
:101A50000A430260C169114A1140C269120C1204A2
:101A60000A43C26141683F2211434268C9B2120A67
:101A700012020A4342608034606B04218843606331
:101A800010BD0000D000002040000D404000154077
:101A90001025000000000740000000206AFA000046
:101AA0000F48052260210A520A2262210A540D4978
:101AB000416619214901C1653921090481657047D1
:101AC000094907480A699205920D42608A699205A0
:101AD000920D8260096A8905890DC1607047000016
:101AE0002C020020894100004000154010B502146E
:101AF0000B14144680B289B25C4343434A43D21864
:101B000048431114120409198218824200D2491C58
:101B10000804110C084310BD30B50546002903D058
:101B2000002D08DB034607E0C01702D00120C007E4
:101B300030BD134830BD6B42002901DB0A4600E08E
:101B40004A4200200124240401E0520064009A4229
:101B5000FBD3002A0BDA934201D320439B1A52088D
:101B600004E0934201D320439B1A5B006408002CDD
:101B700001D0002BF5D14D40DCD5404230BD0000F6
:101B8000FFFFFF7F0021016041608160C1607047FD
:101B900070B504460E460069FFF7A8FF05462068A9
:101BA0006169301AFFF7A2FF616AFFF79FFF616862
:101BB000801209186818A0606160E060216A88429C
:101BC00004DCE169884201DBE16800E0E160401A81
:101BD0002060A169FFF78AFF206070BD4A684260FB
:101BE0008A688260CA68C260096801607047000044
:101BF000084A07489168490708D5FF304130817D80
:101C0000491C81759068042108439060704700006A
:101C1000D000002040000D4010B500F01CF9034832
:101C2000016810221143016010BD000000000F4048
:101C3000FEB54F484D4D00682E464007E03600285F
:101C40006FDAEC1DF934207D002865D00027277558
:101C5000A07D60757179002901D0464900E04649B0
:101C6000085CA07545480078052807D1607DFFF71E
:101C700050FE208C401C2084EC204753607D40495E
:101C8000095C0F20FFF734F9208A616A400040198F
:101C9000FF300130808E081A6062208A618C40001B
:101CA0004019FF3001308186618C606A40186062A3
:101CB00000043449A062FFF719FF010CA062284616
:101CC000FF30413002904181C03801908163208A09
:101CD000401C80B22082062800D327822A48E16A6D
:101CE000FFF704FF0090019881690098FFF7FEFE5E
:101CF0000090000C4035A887029887812349042072
:101D00000870234940020860214940008031086082
:101D1000BFF34F8FBFF36F8F154801680422114343
:101D20000160134C403C2068C0061ED51348017862
:101D3000032901D0042914D171790029018A06D020
:101D4000491E0904090C018208D1062105E0491C3D
:101D500089B20182062901D90121018288B2FFF7E7
:101D6000D8FD2068102108432060FEBDD00000206F
:101D700040001040522500003D2500009400002046
:101D800036250000AA2A0000894100000200002038
:101D900000E100E02D4904230A468032506B98434D
:101DA0001B02184350630846C030818F4B1C838749
:101DB000038F99420FD9516F8AB24287C18F9142E6
:101DC00001D2491C02E0914202D9491EC18700E0BC
:101DD000C28700218187704710B51C4C6061216962
:101DE000401AA169FFF782FE21690818206110BD21
:101DF00010B50C46014603204004FFF777FE01466C
:101E00002046FFF789FE7D21C904FFF76FFE00140D
:101E100010BDFF211631095C0D4A403001290BD05D
:101E2000062909D0042909D0052907D002290AD09A
:101E3000032908D0002104E0116B00E091688905B6
:101E4000890D01867047916BF9E70000D0000020F2
:101E5000400015407047F8B55F495E484969C41DA8
:101E6000C9430906F934C90F5C4D21732A78274606
:101E7000002640371300FEF725FA0504162915A29F
:101E80001500E0304079002806D0607D544A105C8F
:101E900006E0A173012015E05148627DC01F805CFF
:101EA0008142F6D0F8BDA27B8A420DD1617B6030C1
:101EB000491CC9B26173807E8142F3D3494880686E
:101EC000B88002202870F8BD667380E0B9883A892E
:101ED00089186184618A226B49000918FF314131F8
:101EE0000988511A2163628A618C52001018FF30F0
:101EF00041300180618C206B40182063608A401C57
:101F000080B26082022800D36682208E0121000404
:101F1000C903FFF7EBFD3449E062FFF7E7FD2065F9
:101F20002F49627DC91F895C002901D0A16900E0A9
:101F3000E169FFF7DBFD2065000CB88204D02B4976
:101F4000884203D9B98201E00120B8822548B98AC4
:101F50004030416001680422114301600168082299
:101F6000114301601F488168F980BA88891A398154
:101F7000016801221203914301601D494160036819
:101F8000032189028B430360036804273B430360FA
:101F900003688B439110591801600368BB430360C9
:101FA0000120144BC1021960BFF34F8FBFF36F8F35
:101FB000104980390A6066732075032082E7B98969
:101FC0004A1CBA814030808F814200D27BE72E705C
:101FD000F8BD0000D00000204000074002000020B3
:101FE0004B250000000010402202000050C30000FA
:101FF000FFFF000080E100E010B5494A72B6494891
:10200000016803680906890F89011B0A1B020B433B
:102010000360416843680906890F89011B0A1B0296
:102020000B434360C169404B1940C3691B0C1B043F
:102030000B43C361C16915231943C36989B21B0CE2
:102040001B040B43C361FF320132D188374A51620E
:10205000D16251634168072211434268C9B2120A32
:1020600012020A43426001217D20FEF741FF62B661
:1020700010BD2F49C988814205D3081A2B4980B267
:102080004862C862486370472B492A48896A284ACF
:102090008905890D818043889942C18805D2D388FA
:1020A000143B994205DA491D02E00A2901D30A3995
:1020B000C18088B2D188884202D8002800D0D8E7F1
:1020C000704730B51C4A1B491069403983059B0D88
:1020D00008464030038193699B059B0D4381126A3A
:1020E0009205920D8281038944891B199A1893B233
:1020F00001240022C381192B06D8417C4B1C437458
:102100000A2909D9427406E042744B6D5D1C4D6585
:102110000A498B4201D3047430BD027430BD000003
:10212000D0000020000007406AFA000040000D4087
:10213000D00100206C020020400015400071020018
:10214000134880681349800580098860704770B51E
:10215000114CA0880104206800680068FFF7DCFCCF
:102160000E4E3146FFF7C2FC051420890104206899
:1021700040680068FFF7D0FC3146FFF7B7FC011458
:102180007014074A2B1853600818D06070BD000007
:1021900040001540EC02002084000020000057049D
:1021A00040000E40CD4882684168914201DD891AA5
:1021B00000E0511A01624268C1688A4201DD511A89
:1021C00000E0891A41628268C1688A4201DD511AC1
:1021D00000E0891A816260210A5AC049036A2031ED
:1021E000934209DA436A934206DA836A934203DA36
:1021F00001228A77022102E000228A7703210170FE
:10220000704710B5B54CA16860684018E168401887
:10221000E0620004B249FFF769FC0114E162204664
:10222000626820308A42017C02DD0122114301E014
:10223000490849000174E26AA1689142017C02DD0B
:102240000222114301E0FD2211400174E26AE168BB
:102250009142017C02DD0422114301E0FB22114086
:10226000017410BD9D4B10B51A462032517C107C74
:10227000814239D00124012816D0052819D004281C
:102280001CD006281FD0022822D0032825D00128E0
:102290000CD0032823D002281CD0062815D00428EF
:1022A0000ED0052807D01CE0032920D0052920D016
:1022B00017E001291BD004291BD012E0052916D0F4
:1022C000062916D00DE0042911D0022911D008E00A
:1022D00006290CD003290CD003E0022907D00129DC
:1022E00007D0FF2010751C70107C507410BD147541
:1022F000FAE700201075F7E770B5784C794D204665
:102300002030027D017C002A1ED0774A515C817406
:10231000A16DE06DFFF7EAFBA0630146A08DA28BE3
:10232000801A0004FFF7E2FBA021A063495B0904C7
:10233000FFF7F2FBFF350135A063E9880904FFF7D9
:10234000D5FB000CA08770BD684ADFE7F8B5634F86
:10235000644C3220C15DE51DF93566486975644AF3
:102360004260026820239A430260634A9B01136023
:102370005B00136003680422134303600368934304
:102380000360A975687D5D49095C2920FEF7B0FDF1
:10239000264680362846318F40300180318F41807B
:1023A00000206882B06B400001042863786EFFF75C
:1023B0009DFBB169FFF79AFB010C7C20015320467D
:1023C0001C30FFF7DFFBB88F4D490004E061B88F88
:1023D00000042062B88F0004A062052008704949FB
:1023E00000200870F8BDF8B53C4D3E4E28782C46CC
:1023F000012740340300FDF765FF0705080D1D5058
:1024000058610C00FFF74CFB66E0FFF759FBFFF744
:10241000C9FEF8BD3A488036C189818181884180F2
:10242000394801210770394849020770706B084329
:102430007063F8BD32482030007B0028F9D0FFF7E8
:10244000E0FEFFF70FFFFFF757FF6220425D2348D2
:102450002188203091420BD300212180E036017D7C
:102460007279914201D1042100E00521297000E038
:102470002F70017DFF290ED0427D8A420BD1C17C95
:10248000827C914202D02188491C2180817CC174C8
:10249000017D4175F8BD0021F7E7FFF757FF1A49A5
:1024A0000220087019490870F8BDFFF7A5FD00204B
:1024B0006865E080207406202870F8BDFFF7E4FD11
:1024C000FFF7FFFD207C0028F7D00D48C1894900A7
:1024D00081818188490041802F70F8BD2C02002045
:1024E00055550000D00000202E25000026250000B4
:1024F000FFFF00000000104000E100E03625000072
:1025000094000020020000200100002000000020B4
:1025100000020404010102000000800080000001AC
:102520000001000400040902040306010509090171
:1025300003020506040900F0E0D0F0E0D000020339
:102540000405060100010001000100000001000176
:102550000001000601020304050000007C250000C4
:102560000000002094000000D400000010260000AD
:1025700094000020E4030000F000000000000000D0
:102580000000000000000000D0000020DC0000205F
:10259000D0000020DC000020D0000020DC00002063
:1025A000D0000020DC000020D0000020DC00002053
:1025B000D0000020DC000020D0000020DC00002043
:1025C000D0000020DC000020D0000020DC00002033
:1025D000D0000020F4020020F0020020EC020020D5
:1025E00000000000000000000000000000000000EB
:1025F00000000000000000000000000000000000DB
:102600000C000020000000000000000000093D0058
:040000050000009166
:00000001FF
